{
  "contractName": "CommitmentPool",
  "abi": [
    {
      "inputs": [
        {
          "internalType": "uint256",
          "name": "",
          "type": "uint256"
        }
      ],
      "name": "commitments",
      "outputs": [
        {
          "internalType": "address",
          "name": "initiator",
          "type": "address"
        },
        {
          "internalType": "address",
          "name": "counterparty",
          "type": "address"
        },
        {
          "internalType": "uint256",
          "name": "amount",
          "type": "uint256"
        },
        {
          "internalType": "address",
          "name": "token",
          "type": "address"
        },
        {
          "internalType": "uint256",
          "name": "expiry",
          "type": "uint256"
        },
        {
          "components": [
            {
              "internalType": "address",
              "name": "token0",
              "type": "address"
            },
            {
              "internalType": "address",
              "name": "token1",
              "type": "address"
            },
            {
              "internalType": "uint256",
              "name": "amount0",
              "type": "uint256"
            },
            {
              "internalType": "uint256",
              "name": "amount1",
              "type": "uint256"
            }
          ],
          "internalType": "struct CommitmentPool.Trade",
          "name": "trade",
          "type": "tuple"
        },
        {
          "internalType": "enum CommitmentPool.CommitmentType",
          "name": "commitment_type",
          "type": "uint8"
        },
        {
          "internalType": "bool",
          "name": "active",
          "type": "bool"
        },
        {
          "internalType": "bool",
          "name": "fulfiled",
          "type": "bool"
        },
        {
          "internalType": "bool",
          "name": "completed",
          "type": "bool"
        }
      ],
      "stateMutability": "view",
      "type": "function"
    },
    {
      "inputs": [
        {
          "internalType": "address",
          "name": "counterparty",
          "type": "address"
        },
        {
          "internalType": "uint256",
          "name": "amount",
          "type": "uint256"
        },
        {
          "internalType": "address",
          "name": "token",
          "type": "address"
        },
        {
          "internalType": "uint256",
          "name": "amount0",
          "type": "uint256"
        },
        {
          "internalType": "uint256",
          "name": "amount1",
          "type": "uint256"
        },
        {
          "internalType": "address",
          "name": "token0",
          "type": "address"
        },
        {
          "internalType": "address",
          "name": "token1",
          "type": "address"
        },
        {
          "internalType": "uint256",
          "name": "expiry",
          "type": "uint256"
        },
        {
          "internalType": "enum CommitmentPool.CommitmentType",
          "name": "commitment_type",
          "type": "uint8"
        }
      ],
      "name": "commit",
      "outputs": [],
      "stateMutability": "nonpayable",
      "type": "function"
    },
    {
      "inputs": [
        {
          "internalType": "uint256",
          "name": "index",
          "type": "uint256"
        }
      ],
      "name": "fulfil",
      "outputs": [],
      "stateMutability": "nonpayable",
      "type": "function"
    },
    {
      "inputs": [
        {
          "internalType": "uint256",
          "name": "index",
          "type": "uint256"
        }
      ],
      "name": "retrieveCommitment",
      "outputs": [],
      "stateMutability": "nonpayable",
      "type": "function"
    }
  ],
  "bytecode": "0x608060405234801561001057600080fd5b50614571806100206000396000f3fe608060405234801561001057600080fd5b506004361061004c5760003560e01c806349ce899714610051578063b5f8b3fd1461008a578063c77c8084146100a6578063dd76ce17146100c2575b600080fd5b61006b6004803603810190610066919061403e565b6100de565b6040516100819a99989796959493929190614295565b60405180910390f35b6100a4600480360381019061009f9190613f4f565b6102a0565b005b6100c060048036038101906100bb919061403e565b610a0c565b005b6100dc60048036038101906100d7919061403e565b610c9f565b005b600081815481106100ee57600080fd5b90600052602060002090600a02016000915090508060000160009054906101000a900473ffffffffffffffffffffffffffffffffffffffff16908060010160009054906101000a900473ffffffffffffffffffffffffffffffffffffffff16908060020154908060030160009054906101000a900473ffffffffffffffffffffffffffffffffffffffff1690806004015490806005016040518060800160405290816000820160009054906101000a900473ffffffffffffffffffffffffffffffffffffffff1673ffffffffffffffffffffffffffffffffffffffff1673ffffffffffffffffffffffffffffffffffffffff1681526020016001820160009054906101000a900473ffffffffffffffffffffffffffffffffffffffff1673ffffffffffffffffffffffffffffffffffffffff1673ffffffffffffffffffffffffffffffffffffffff16815260200160028201548152602001600382015481525050908060090160009054906101000a900460ff16908060090160019054906101000a900460ff16908060090160029054906101000a900460ff16908060090160039054906101000a900460ff1690508a565b6102a8613dce565b6102b48833308c610f32565b600060028111156102ee577f4e487b7100000000000000000000000000000000000000000000000000000000600052602160045260246000fd5b826002811115610327577f4e487b7100000000000000000000000000000000000000000000000000000000600052602160045260246000fd5b141561044a576040518061014001604052803373ffffffffffffffffffffffffffffffffffffffff1681526020018b73ffffffffffffffffffffffffffffffffffffffff1681526020018a81526020018973ffffffffffffffffffffffffffffffffffffffff1681526020018481526020016040518060800160405280600073ffffffffffffffffffffffffffffffffffffffff168152602001600073ffffffffffffffffffffffffffffffffffffffff168152602001600081526020016000815250815260200160006002811115610429577f4e487b7100000000000000000000000000000000000000000000000000000000600052602160045260246000fd5b81526020016001151581526020016000151581526020016000151581525090505b60016002811115610484577f4e487b7100000000000000000000000000000000000000000000000000000000600052602160045260246000fd5b8260028111156104bd577f4e487b7100000000000000000000000000000000000000000000000000000000600052602160045260246000fd5b14156105e8576104cf8833308c610f32565b6040518061014001604052803373ffffffffffffffffffffffffffffffffffffffff1681526020018b73ffffffffffffffffffffffffffffffffffffffff1681526020018a81526020018973ffffffffffffffffffffffffffffffffffffffff16815260200184815260200160405180608001604052808873ffffffffffffffffffffffffffffffffffffffff1681526020018773ffffffffffffffffffffffffffffffffffffffff1681526020018a8152602001898152508152602001600160028111156105c7577f4e487b7100000000000000000000000000000000000000000000000000000000600052602160045260246000fd5b81526020016000151581526020016000151581526020016000151581525090505b600280811115610621577f4e487b7100000000000000000000000000000000000000000000000000000000600052602160045260246000fd5b82600281111561065a577f4e487b7100000000000000000000000000000000000000000000000000000000600052602160045260246000fd5b14156107845761066c8833308a610f32565b6040518061014001604052803373ffffffffffffffffffffffffffffffffffffffff1681526020018b73ffffffffffffffffffffffffffffffffffffffff1681526020018a81526020018973ffffffffffffffffffffffffffffffffffffffff16815260200184815260200160405180608001604052808873ffffffffffffffffffffffffffffffffffffffff1681526020018773ffffffffffffffffffffffffffffffffffffffff1681526020018a8152602001898152508152602001600280811115610763577f4e487b7100000000000000000000000000000000000000000000000000000000600052602160045260246000fd5b81526020016000151581526020016000151581526020016000151581525090505b60008190806001815401808255809150506001900390600052602060002090600a020160009091909190915060008201518160000160006101000a81548173ffffffffffffffffffffffffffffffffffffffff021916908373ffffffffffffffffffffffffffffffffffffffff16021790555060208201518160010160006101000a81548173ffffffffffffffffffffffffffffffffffffffff021916908373ffffffffffffffffffffffffffffffffffffffff1602179055506040820151816002015560608201518160030160006101000a81548173ffffffffffffffffffffffffffffffffffffffff021916908373ffffffffffffffffffffffffffffffffffffffff1602179055506080820151816004015560a08201518160050160008201518160000160006101000a81548173ffffffffffffffffffffffffffffffffffffffff021916908373ffffffffffffffffffffffffffffffffffffffff16021790555060208201518160010160006101000a81548173ffffffffffffffffffffffffffffffffffffffff021916908373ffffffffffffffffffffffffffffffffffffffff1602179055506040820151816002015560608201518160030155505060c08201518160090160006101000a81548160ff02191690836002811115610997577f4e487b7100000000000000000000000000000000000000000000000000000000600052602160045260246000fd5b021790555060e08201518160090160016101000a81548160ff0219169083151502179055506101008201518160090160026101000a81548160ff0219169083151502179055506101208201518160090160036101000a81548160ff021916908315150217905550505050505050505050505050565b60006002811115610a46577f4e487b7100000000000000000000000000000000000000000000000000000000600052602160045260246000fd5b60008281548110610a80577f4e487b7100000000000000000000000000000000000000000000000000000000600052603260045260246000fd5b90600052602060002090600a020160090160009054906101000a900460ff166002811115610ad7577f4e487b7100000000000000000000000000000000000000000000000000000000600052602160045260246000fd5b1415610ae757610ae68161106b565b5b60016002811115610b21577f4e487b7100000000000000000000000000000000000000000000000000000000600052602160045260246000fd5b60008281548110610b5b577f4e487b7100000000000000000000000000000000000000000000000000000000600052603260045260246000fd5b90600052602060002090600a020160090160009054906101000a900460ff166002811115610bb2577f4e487b7100000000000000000000000000000000000000000000000000000000600052602160045260246000fd5b1415610bc257610bc1816117a0565b5b600280811115610bfb577f4e487b7100000000000000000000000000000000000000000000000000000000600052602160045260246000fd5b60008281548110610c35577f4e487b7100000000000000000000000000000000000000000000000000000000600052603260045260246000fd5b90600052602060002090600a020160090160009054906101000a900460ff166002811115610c8c577f4e487b7100000000000000000000000000000000000000000000000000000000600052602160045260246000fd5b1415610c9c57610c9b81611e52565b5b50565b60006002811115610cd9577f4e487b7100000000000000000000000000000000000000000000000000000000600052602160045260246000fd5b60008281548110610d13577f4e487b7100000000000000000000000000000000000000000000000000000000600052603260045260246000fd5b90600052602060002090600a020160090160009054906101000a900460ff166002811115610d6a577f4e487b7100000000000000000000000000000000000000000000000000000000600052602160045260246000fd5b1415610d7a57610d7981612632565b5b60016002811115610db4577f4e487b7100000000000000000000000000000000000000000000000000000000600052602160045260246000fd5b60008281548110610dee577f4e487b7100000000000000000000000000000000000000000000000000000000600052603260045260246000fd5b90600052602060002090600a020160090160009054906101000a900460ff166002811115610e45577f4e487b7100000000000000000000000000000000000000000000000000000000600052602160045260246000fd5b1415610e5557610e5481612bde565b5b600280811115610e8e577f4e487b7100000000000000000000000000000000000000000000000000000000600052602160045260246000fd5b60008281548110610ec8577f4e487b7100000000000000000000000000000000000000000000000000000000600052603260045260246000fd5b90600052602060002090600a020160090160009054906101000a900460ff166002811115610f1f577f4e487b7100000000000000000000000000000000000000000000000000000000600052602160045260246000fd5b1415610f2f57610f2e81613499565b5b50565b6000808573ffffffffffffffffffffffffffffffffffffffff166323b872dd868686604051602401610f669392919061425e565b6040516020818303038152906040529060e01b6020820180517bffffffffffffffffffffffffffffffffffffffffffffffffffffffff8381831617835250505050604051610fb49190614247565b6000604051808303816000865af19150503d8060008114610ff1576040519150601f19603f3d011682016040523d82523d6000602084013e610ff6565b606091505b509150915081801561102457506000815114806110235750808060200190518101906110229190614015565b5b5b611063576040517f08c379a000000000000000000000000000000000000000000000000000000000815260040161105a906143bc565b60405180910390fd5b505050505050565b600081815481106110a5577f4e487b7100000000000000000000000000000000000000000000000000000000600052603260045260246000fd5b90600052602060002090600a0201604051806101400160405290816000820160009054906101000a900473ffffffffffffffffffffffffffffffffffffffff1673ffffffffffffffffffffffffffffffffffffffff1673ffffffffffffffffffffffffffffffffffffffff1681526020016001820160009054906101000a900473ffffffffffffffffffffffffffffffffffffffff1673ffffffffffffffffffffffffffffffffffffffff1673ffffffffffffffffffffffffffffffffffffffff168152602001600282015481526020016003820160009054906101000a900473ffffffffffffffffffffffffffffffffffffffff1673ffffffffffffffffffffffffffffffffffffffff1673ffffffffffffffffffffffffffffffffffffffff16815260200160048201548152602001600582016040518060800160405290816000820160009054906101000a900473ffffffffffffffffffffffffffffffffffffffff1673ffffffffffffffffffffffffffffffffffffffff1673ffffffffffffffffffffffffffffffffffffffff1681526020016001820160009054906101000a900473ffffffffffffffffffffffffffffffffffffffff1673ffffffffffffffffffffffffffffffffffffffff1673ffffffffffffffffffffffffffffffffffffffff1681526020016002820154815260200160038201548152505081526020016009820160009054906101000a900460ff1660028111156112f4577f4e487b7100000000000000000000000000000000000000000000000000000000600052602160045260246000fd5b600281111561132c577f4e487b7100000000000000000000000000000000000000000000000000000000600052602160045260246000fd5b81526020016009820160019054906101000a900460ff161515151581526020016009820160029054906101000a900460ff161515151581526020016009820160039054906101000a900460ff1615151515815250508061012001511561139157600080fd5b60008083815481106113cc577f4e487b7100000000000000000000000000000000000000000000000000000000600052603260045260246000fd5b90600052602060002090600a020160030160009054906101000a900473ffffffffffffffffffffffffffffffffffffffff169050600080848154811061143b577f4e487b7100000000000000000000000000000000000000000000000000000000600052603260045260246000fd5b90600052602060002090600a020160020154905060008481548110611489577f4e487b7100000000000000000000000000000000000000000000000000000000600052603260045260246000fd5b90600052602060002090600a020160010160009054906101000a900473ffffffffffffffffffffffffffffffffffffffff1673ffffffffffffffffffffffffffffffffffffffff163373ffffffffffffffffffffffffffffffffffffffff1614156115c95760016000858154811061152a577f4e487b7100000000000000000000000000000000000000000000000000000000600052603260045260246000fd5b90600052602060002090600a020160090160036101000a81548160ff0219169083151502179055506115c88260008681548110611590577f4e487b7100000000000000000000000000000000000000000000000000000000600052603260045260246000fd5b90600052602060002090600a020160010160009054906101000a900473ffffffffffffffffffffffffffffffffffffffff1683613c98565b5b60008481548110611603577f4e487b7100000000000000000000000000000000000000000000000000000000600052603260045260246000fd5b90600052602060002090600a020160000160009054906101000a900473ffffffffffffffffffffffffffffffffffffffff1673ffffffffffffffffffffffffffffffffffffffff163373ffffffffffffffffffffffffffffffffffffffff161480156116ba575042600085815481106116a5577f4e487b7100000000000000000000000000000000000000000000000000000000600052603260045260246000fd5b90600052602060002090600a02016004015410155b1561179a576001600085815481106116fb577f4e487b7100000000000000000000000000000000000000000000000000000000600052603260045260246000fd5b90600052602060002090600a020160090160036101000a81548160ff0219169083151502179055506117998260008681548110611761577f4e487b7100000000000000000000000000000000000000000000000000000000600052603260045260246000fd5b90600052602060002090600a020160000160009054906101000a900473ffffffffffffffffffffffffffffffffffffffff1683613c98565b5b50505050565b600081815481106117da577f4e487b7100000000000000000000000000000000000000000000000000000000600052603260045260246000fd5b90600052602060002090600a0201604051806101400160405290816000820160009054906101000a900473ffffffffffffffffffffffffffffffffffffffff1673ffffffffffffffffffffffffffffffffffffffff1673ffffffffffffffffffffffffffffffffffffffff1681526020016001820160009054906101000a900473ffffffffffffffffffffffffffffffffffffffff1673ffffffffffffffffffffffffffffffffffffffff1673ffffffffffffffffffffffffffffffffffffffff168152602001600282015481526020016003820160009054906101000a900473ffffffffffffffffffffffffffffffffffffffff1673ffffffffffffffffffffffffffffffffffffffff1673ffffffffffffffffffffffffffffffffffffffff16815260200160048201548152602001600582016040518060800160405290816000820160009054906101000a900473ffffffffffffffffffffffffffffffffffffffff1673ffffffffffffffffffffffffffffffffffffffff1673ffffffffffffffffffffffffffffffffffffffff1681526020016001820160009054906101000a900473ffffffffffffffffffffffffffffffffffffffff1673ffffffffffffffffffffffffffffffffffffffff1673ffffffffffffffffffffffffffffffffffffffff1681526020016002820154815260200160038201548152505081526020016009820160009054906101000a900460ff166002811115611a29577f4e487b7100000000000000000000000000000000000000000000000000000000600052602160045260246000fd5b6002811115611a61577f4e487b7100000000000000000000000000000000000000000000000000000000600052602160045260246000fd5b81526020016009820160019054906101000a900460ff161515151581526020016009820160029054906101000a900460ff161515151581526020016009820160039054906101000a900460ff16151515158152505080610120015115611ac657600080fd5b6000808381548110611b01577f4e487b7100000000000000000000000000000000000000000000000000000000600052603260045260246000fd5b90600052602060002090600a020160030160009054906101000a900473ffffffffffffffffffffffffffffffffffffffff1690506000808481548110611b70577f4e487b7100000000000000000000000000000000000000000000000000000000600052603260045260246000fd5b90600052602060002090600a020160020154905060008481548110611bbe577f4e487b7100000000000000000000000000000000000000000000000000000000600052603260045260246000fd5b90600052602060002090600a020160090160019054906101000a900460ff16611cbc57600160008581548110611c1d577f4e487b7100000000000000000000000000000000000000000000000000000000600052603260045260246000fd5b90600052602060002090600a020160090160036101000a81548160ff021916908315150217905550611cbb8260008681548110611c83577f4e487b7100000000000000000000000000000000000000000000000000000000600052603260045260246000fd5b90600052602060002090600a020160000160009054906101000a900473ffffffffffffffffffffffffffffffffffffffff1683613c98565b5b4260008581548110611cf7577f4e487b7100000000000000000000000000000000000000000000000000000000600052603260045260246000fd5b90600052602060002090600a02016004015410158015611d6c575060008481548110611d4c577f4e487b7100000000000000000000000000000000000000000000000000000000600052603260045260246000fd5b90600052602060002090600a020160090160019054906101000a900460ff165b15611e4c57600160008581548110611dad577f4e487b7100000000000000000000000000000000000000000000000000000000600052603260045260246000fd5b90600052602060002090600a020160090160036101000a81548160ff021916908315150217905550611e4b8260008681548110611e13577f4e487b7100000000000000000000000000000000000000000000000000000000600052603260045260246000fd5b90600052602060002090600a020160010160009054906101000a900473ffffffffffffffffffffffffffffffffffffffff1683613c98565b5b50505050565b60008181548110611e8c577f4e487b7100000000000000000000000000000000000000000000000000000000600052603260045260246000fd5b90600052602060002090600a0201604051806101400160405290816000820160009054906101000a900473ffffffffffffffffffffffffffffffffffffffff1673ffffffffffffffffffffffffffffffffffffffff1673ffffffffffffffffffffffffffffffffffffffff1681526020016001820160009054906101000a900473ffffffffffffffffffffffffffffffffffffffff1673ffffffffffffffffffffffffffffffffffffffff1673ffffffffffffffffffffffffffffffffffffffff168152602001600282015481526020016003820160009054906101000a900473ffffffffffffffffffffffffffffffffffffffff1673ffffffffffffffffffffffffffffffffffffffff1673ffffffffffffffffffffffffffffffffffffffff16815260200160048201548152602001600582016040518060800160405290816000820160009054906101000a900473ffffffffffffffffffffffffffffffffffffffff1673ffffffffffffffffffffffffffffffffffffffff1673ffffffffffffffffffffffffffffffffffffffff1681526020016001820160009054906101000a900473ffffffffffffffffffffffffffffffffffffffff1673ffffffffffffffffffffffffffffffffffffffff1673ffffffffffffffffffffffffffffffffffffffff1681526020016002820154815260200160038201548152505081526020016009820160009054906101000a900460ff1660028111156120db577f4e487b7100000000000000000000000000000000000000000000000000000000600052602160045260246000fd5b6002811115612113577f4e487b7100000000000000000000000000000000000000000000000000000000600052602160045260246000fd5b81526020016009820160019054906101000a900460ff161515151581526020016009820160029054906101000a900460ff161515151581526020016009820160039054906101000a900460ff1615151515815250508060e001511561217757600080fd5b600082815481106121b1577f4e487b7100000000000000000000000000000000000000000000000000000000600052603260045260246000fd5b90600052602060002090600a0201604051806101400160405290816000820160009054906101000a900473ffffffffffffffffffffffffffffffffffffffff1673ffffffffffffffffffffffffffffffffffffffff1673ffffffffffffffffffffffffffffffffffffffff1681526020016001820160009054906101000a900473ffffffffffffffffffffffffffffffffffffffff1673ffffffffffffffffffffffffffffffffffffffff1673ffffffffffffffffffffffffffffffffffffffff168152602001600282015481526020016003820160009054906101000a900473ffffffffffffffffffffffffffffffffffffffff1673ffffffffffffffffffffffffffffffffffffffff1673ffffffffffffffffffffffffffffffffffffffff16815260200160048201548152602001600582016040518060800160405290816000820160009054906101000a900473ffffffffffffffffffffffffffffffffffffffff1673ffffffffffffffffffffffffffffffffffffffff1673ffffffffffffffffffffffffffffffffffffffff1681526020016001820160009054906101000a900473ffffffffffffffffffffffffffffffffffffffff1673ffffffffffffffffffffffffffffffffffffffff1673ffffffffffffffffffffffffffffffffffffffff1681526020016002820154815260200160038201548152505081526020016009820160009054906101000a900460ff166002811115612400577f4e487b7100000000000000000000000000000000000000000000000000000000600052602160045260246000fd5b6002811115612438577f4e487b7100000000000000000000000000000000000000000000000000000000600052602160045260246000fd5b81526020016009820160019054906101000a900460ff161515151581526020016009820160029054906101000a900460ff161515151581526020016009820160039054906101000a900460ff1615151515815250508061012001511561249d57600080fd5b6001600084815481106124d9577f4e487b7100000000000000000000000000000000000000000000000000000000600052603260045260246000fd5b90600052602060002090600a020160090160036101000a81548160ff02191690831515021790555061262d6000848154811061253e577f4e487b7100000000000000000000000000000000000000000000000000000000600052603260045260246000fd5b90600052602060002090600a020160030160009054906101000a900473ffffffffffffffffffffffffffffffffffffffff16600085815481106125aa577f4e487b7100000000000000000000000000000000000000000000000000000000600052603260045260246000fd5b90600052602060002090600a020160000160009054906101000a900473ffffffffffffffffffffffffffffffffffffffff1660008681548110612616577f4e487b7100000000000000000000000000000000000000000000000000000000600052603260045260246000fd5b90600052602060002090600a020160020154613c98565b505050565b6000818154811061266c577f4e487b7100000000000000000000000000000000000000000000000000000000600052603260045260246000fd5b90600052602060002090600a0201604051806101400160405290816000820160009054906101000a900473ffffffffffffffffffffffffffffffffffffffff1673ffffffffffffffffffffffffffffffffffffffff1673ffffffffffffffffffffffffffffffffffffffff1681526020016001820160009054906101000a900473ffffffffffffffffffffffffffffffffffffffff1673ffffffffffffffffffffffffffffffffffffffff1673ffffffffffffffffffffffffffffffffffffffff168152602001600282015481526020016003820160009054906101000a900473ffffffffffffffffffffffffffffffffffffffff1673ffffffffffffffffffffffffffffffffffffffff1673ffffffffffffffffffffffffffffffffffffffff16815260200160048201548152602001600582016040518060800160405290816000820160009054906101000a900473ffffffffffffffffffffffffffffffffffffffff1673ffffffffffffffffffffffffffffffffffffffff1673ffffffffffffffffffffffffffffffffffffffff1681526020016001820160009054906101000a900473ffffffffffffffffffffffffffffffffffffffff1673ffffffffffffffffffffffffffffffffffffffff1673ffffffffffffffffffffffffffffffffffffffff1681526020016002820154815260200160038201548152505081526020016009820160009054906101000a900460ff1660028111156128bb577f4e487b7100000000000000000000000000000000000000000000000000000000600052602160045260246000fd5b60028111156128f3577f4e487b7100000000000000000000000000000000000000000000000000000000600052602160045260246000fd5b81526020016009820160019054906101000a900460ff161515151581526020016009820160029054906101000a900460ff161515151581526020016009820160039054906101000a900460ff1615151515815250508061010001511561295857600080fd5b4260008381548110612993577f4e487b7100000000000000000000000000000000000000000000000000000000600052603260045260246000fd5b90600052602060002090600a02016004015410156129e6576040517f08c379a00000000000000000000000000000000000000000000000000000000081526004016129dd9061435c565b60405180910390fd5b600160008381548110612a22577f4e487b7100000000000000000000000000000000000000000000000000000000600052603260045260246000fd5b90600052602060002090600a020160090160026101000a81548160ff021916908315150217905550600160008381548110612a86577f4e487b7100000000000000000000000000000000000000000000000000000000600052603260045260246000fd5b90600052602060002090600a020160090160036101000a81548160ff021916908315150217905550612bda60008381548110612aeb577f4e487b7100000000000000000000000000000000000000000000000000000000600052603260045260246000fd5b90600052602060002090600a020160030160009054906101000a900473ffffffffffffffffffffffffffffffffffffffff1660008481548110612b57577f4e487b7100000000000000000000000000000000000000000000000000000000600052603260045260246000fd5b90600052602060002090600a020160000160009054906101000a900473ffffffffffffffffffffffffffffffffffffffff1660008581548110612bc3577f4e487b7100000000000000000000000000000000000000000000000000000000600052603260045260246000fd5b90600052602060002090600a020160020154613c98565b5050565b4260008281548110612c19577f4e487b7100000000000000000000000000000000000000000000000000000000600052603260045260246000fd5b90600052602060002090600a02016004015410612c6b576040517f08c379a0000000000000000000000000000000000000000000000000000000008152600401612c629061439c565b60405180910390fd5b6000808281548110612ca6577f4e487b7100000000000000000000000000000000000000000000000000000000600052603260045260246000fd5b90600052602060002090600a020160050160000160009054906101000a900473ffffffffffffffffffffffffffffffffffffffff1690506000808381548110612d18577f4e487b7100000000000000000000000000000000000000000000000000000000600052603260045260246000fd5b90600052602060002090600a020160050160010160009054906101000a900473ffffffffffffffffffffffffffffffffffffffff1690506000808481548110612d8a577f4e487b7100000000000000000000000000000000000000000000000000000000600052603260045260246000fd5b90600052602060002090600a02016005016002015490506000808581548110612ddc577f4e487b7100000000000000000000000000000000000000000000000000000000600052603260045260246000fd5b90600052602060002090600a020160050160030154905060008581548110612e2d577f4e487b7100000000000000000000000000000000000000000000000000000000600052603260045260246000fd5b90600052602060002090600a020160010160009054906101000a900473ffffffffffffffffffffffffffffffffffffffff1673ffffffffffffffffffffffffffffffffffffffff163373ffffffffffffffffffffffffffffffffffffffff16148015612eef575060008581548110612ece577f4e487b7100000000000000000000000000000000000000000000000000000000600052603260045260246000fd5b90600052602060002090600a020160090160029054906101000a900460ff16155b15612f6557600160008681548110612f30577f4e487b7100000000000000000000000000000000000000000000000000000000600052603260045260246000fd5b90600052602060002090600a020160090160016101000a81548160ff021916908315150217905550612f6483333084610f32565b5b60008581548110612f9f577f4e487b7100000000000000000000000000000000000000000000000000000000600052603260045260246000fd5b90600052602060002090600a020160090160019054906101000a900460ff168015613020575060008581548110612fff577f4e487b7100000000000000000000000000000000000000000000000000000000600052603260045260246000fd5b90600052602060002090600a020160090160029054906101000a900460ff16155b80156130c2575060008581548110613061577f4e487b7100000000000000000000000000000000000000000000000000000000600052603260045260246000fd5b90600052602060002090600a020160000160009054906101000a900473ffffffffffffffffffffffffffffffffffffffff1673ffffffffffffffffffffffffffffffffffffffff163373ffffffffffffffffffffffffffffffffffffffff16145b156132c057600160008681548110613103577f4e487b7100000000000000000000000000000000000000000000000000000000600052603260045260246000fd5b90600052602060002090600a020160090160026101000a81548160ff0219169083151502179055506131f360008681548110613168577f4e487b7100000000000000000000000000000000000000000000000000000000600052603260045260246000fd5b90600052602060002090600a020160050160000160009054906101000a900473ffffffffffffffffffffffffffffffffffffffff163330600089815481106131d9577f4e487b7100000000000000000000000000000000000000000000000000000000600052603260045260246000fd5b90600052602060002090600a020160050160020154610f32565b6131fe833383613c98565b6132bf6000868154811061323b577f4e487b7100000000000000000000000000000000000000000000000000000000600052603260045260246000fd5b90600052602060002090600a020160030160009054906101000a900473ffffffffffffffffffffffffffffffffffffffff1633600088815481106132a8577f4e487b7100000000000000000000000000000000000000000000000000000000600052603260045260246000fd5b90600052602060002090600a020160020154613c98565b5b600085815481106132fa577f4e487b7100000000000000000000000000000000000000000000000000000000600052603260045260246000fd5b90600052602060002090600a020160010160009054906101000a900473ffffffffffffffffffffffffffffffffffffffff1673ffffffffffffffffffffffffffffffffffffffff163373ffffffffffffffffffffffffffffffffffffffff161480156133bb57506000858154811061339b577f4e487b7100000000000000000000000000000000000000000000000000000000600052603260045260246000fd5b90600052602060002090600a020160090160029054906101000a900460ff165b801561341d5750600085815481106133fc577f4e487b7100000000000000000000000000000000000000000000000000000000600052603260045260246000fd5b90600052602060002090600a020160090160039054906101000a900460ff16155b156134925760016000868154811061345e577f4e487b7100000000000000000000000000000000000000000000000000000000600052603260045260246000fd5b90600052602060002090600a020160090160036101000a81548160ff021916908315150217905550613491843084613c98565b5b5050505050565b42600082815481106134d4577f4e487b7100000000000000000000000000000000000000000000000000000000600052603260045260246000fd5b90600052602060002090600a02016004015410613526576040517f08c379a000000000000000000000000000000000000000000000000000000000815260040161351d9061439c565b60405180910390fd5b6000808281548110613561577f4e487b7100000000000000000000000000000000000000000000000000000000600052603260045260246000fd5b90600052602060002090600a020160050160000160009054906101000a900473ffffffffffffffffffffffffffffffffffffffff16905060008083815481106135d3577f4e487b7100000000000000000000000000000000000000000000000000000000600052603260045260246000fd5b90600052602060002090600a020160050160010160009054906101000a900473ffffffffffffffffffffffffffffffffffffffff1690506000808481548110613645577f4e487b7100000000000000000000000000000000000000000000000000000000600052603260045260246000fd5b90600052602060002090600a02016005016002015490506000808581548110613697577f4e487b7100000000000000000000000000000000000000000000000000000000600052603260045260246000fd5b90600052602060002090600a0201600501600301549050600085815481106136e8577f4e487b7100000000000000000000000000000000000000000000000000000000600052603260045260246000fd5b90600052602060002090600a020160010160009054906101000a900473ffffffffffffffffffffffffffffffffffffffff1673ffffffffffffffffffffffffffffffffffffffff163373ffffffffffffffffffffffffffffffffffffffff161480156137aa575060008581548110613789577f4e487b7100000000000000000000000000000000000000000000000000000000600052603260045260246000fd5b90600052602060002090600a020160090160029054906101000a900460ff16155b156138e1576001600086815481106137eb577f4e487b7100000000000000000000000000000000000000000000000000000000600052603260045260246000fd5b90600052602060002090600a020160090160016101000a81548160ff02191690831515021790555061381f83333084610f32565b6138e06000868154811061385c577f4e487b7100000000000000000000000000000000000000000000000000000000600052603260045260246000fd5b90600052602060002090600a020160030160009054906101000a900473ffffffffffffffffffffffffffffffffffffffff1633600088815481106138c9577f4e487b7100000000000000000000000000000000000000000000000000000000600052603260045260246000fd5b90600052602060002090600a020160020154613c98565b5b6000858154811061391b577f4e487b7100000000000000000000000000000000000000000000000000000000600052603260045260246000fd5b90600052602060002090600a020160090160019054906101000a900460ff16801561399c57506000858154811061397b577f4e487b7100000000000000000000000000000000000000000000000000000000600052603260045260246000fd5b90600052602060002090600a020160090160029054906101000a900460ff16155b8015613a3e5750600085815481106139dd577f4e487b7100000000000000000000000000000000000000000000000000000000600052603260045260246000fd5b90600052602060002090600a020160000160009054906101000a900473ffffffffffffffffffffffffffffffffffffffff1673ffffffffffffffffffffffffffffffffffffffff163373ffffffffffffffffffffffffffffffffffffffff16145b15613abf57600160008681548110613a7f577f4e487b7100000000000000000000000000000000000000000000000000000000600052603260045260246000fd5b90600052602060002090600a020160090160026101000a81548160ff021916908315150217905550613ab384333085610f32565b613abe833383613c98565b5b60008581548110613af9577f4e487b7100000000000000000000000000000000000000000000000000000000600052603260045260246000fd5b90600052602060002090600a020160010160009054906101000a900473ffffffffffffffffffffffffffffffffffffffff1673ffffffffffffffffffffffffffffffffffffffff163373ffffffffffffffffffffffffffffffffffffffff16148015613bba575060008581548110613b9a577f4e487b7100000000000000000000000000000000000000000000000000000000600052603260045260246000fd5b90600052602060002090600a020160090160029054906101000a900460ff165b8015613c1c575060008581548110613bfb577f4e487b7100000000000000000000000000000000000000000000000000000000600052603260045260246000fd5b90600052602060002090600a020160090160039054906101000a900460ff16155b15613c9157600160008681548110613c5d577f4e487b7100000000000000000000000000000000000000000000000000000000600052603260045260246000fd5b90600052602060002090600a020160090160036101000a81548160ff021916908315150217905550613c90843084613c98565b5b5050505050565b6000808473ffffffffffffffffffffffffffffffffffffffff1663a9059cbb8585604051602401613cca929190614333565b6040516020818303038152906040529060e01b6020820180517bffffffffffffffffffffffffffffffffffffffffffffffffffffffff8381831617835250505050604051613d189190614247565b6000604051808303816000865af19150503d8060008114613d55576040519150601f19603f3d011682016040523d82523d6000602084013e613d5a565b606091505b5091509150818015613d885750600081511480613d87575080806020019051810190613d869190614015565b5b5b613dc7576040517f08c379a0000000000000000000000000000000000000000000000000000000008152600401613dbe9061437c565b60405180910390fd5b5050505050565b604051806101400160405280600073ffffffffffffffffffffffffffffffffffffffff168152602001600073ffffffffffffffffffffffffffffffffffffffff16815260200160008152602001600073ffffffffffffffffffffffffffffffffffffffff16815260200160008152602001613e47613ea7565b815260200160006002811115613e86577f4e487b7100000000000000000000000000000000000000000000000000000000600052602160045260246000fd5b81526020016000151581526020016000151581526020016000151581525090565b6040518060800160405280600073ffffffffffffffffffffffffffffffffffffffff168152602001600073ffffffffffffffffffffffffffffffffffffffff16815260200160008152602001600081525090565b600081359050613f0a816144e6565b92915050565b600081519050613f1f816144fd565b92915050565b600081359050613f3481614514565b92915050565b600081359050613f4981614524565b92915050565b60008060008060008060008060006101208a8c031215613f6e57600080fd5b6000613f7c8c828d01613efb565b9950506020613f8d8c828d01613f3a565b9850506040613f9e8c828d01613efb565b9750506060613faf8c828d01613f3a565b9650506080613fc08c828d01613f3a565b95505060a0613fd18c828d01613efb565b94505060c0613fe28c828d01613efb565b93505060e0613ff38c828d01613f3a565b9250506101006140058c828d01613f25565b9150509295985092959850929598565b60006020828403121561402757600080fd5b600061403584828501613f10565b91505092915050565b60006020828403121561405057600080fd5b600061405e84828501613f3a565b91505092915050565b61407081614403565b82525050565b61407f81614403565b82525050565b61408e81614415565b82525050565b600061409f826143dc565b6140a981856143e7565b93506140b9818560208601614470565b80840191505092915050565b6140ce8161445e565b82525050565b60006140e1600b836143f2565b91507f6e6f7420657870697265640000000000000000000000000000000000000000006000830152602082019050919050565b60006141216010836143f2565b91507f207472616e73666572206661696c6564000000000000000000000000000000006000830152602082019050919050565b60006141616007836143f2565b91507f65787069726564000000000000000000000000000000000000000000000000006000830152602082019050919050565b60006141a16013836143f2565b91507f7472616e7366657246726f6d206661696c6564000000000000000000000000006000830152602082019050919050565b6080820160008201516141ea6000850182614067565b5060208201516141fd6020850182614067565b5060408201516142106040850182614229565b5060608201516142236060850182614229565b50505050565b61423281614454565b82525050565b61424181614454565b82525050565b60006142538284614094565b915081905092915050565b60006060820190506142736000830186614076565b6142806020830185614076565b61428d6040830184614238565b949350505050565b60006101a0820190506142ab600083018d614076565b6142b8602083018c614076565b6142c5604083018b614238565b6142d2606083018a614076565b6142df6080830189614238565b6142ec60a08301886141d4565b6142fa6101208301876140c5565b614308610140830186614085565b614316610160830185614085565b614324610180830184614085565b9b9a5050505050505050505050565b60006040820190506143486000830185614076565b6143556020830184614238565b9392505050565b60006020820190508181036000830152614375816140d4565b9050919050565b6000602082019050818103600083015261439581614114565b9050919050565b600060208201905081810360008301526143b581614154565b9050919050565b600060208201905081810360008301526143d581614194565b9050919050565b600081519050919050565b600081905092915050565b600082825260208201905092915050565b600061440e82614434565b9050919050565b60008115159050919050565b600081905061442f826144d2565b919050565b600073ffffffffffffffffffffffffffffffffffffffff82169050919050565b6000819050919050565b600061446982614421565b9050919050565b60005b8381101561448e578082015181840152602081019050614473565b8381111561449d576000848401525b50505050565b7f4e487b7100000000000000000000000000000000000000000000000000000000600052602160045260246000fd5b600381106144e3576144e26144a3565b5b50565b6144ef81614403565b81146144fa57600080fd5b50565b61450681614415565b811461451157600080fd5b50565b6003811061452157600080fd5b50565b61452d81614454565b811461453857600080fd5b5056fea264697066735822122064c15e47d0d985c1701a6deb53aaa6c10651182c303097de4adb2dcb96851d2c64736f6c63430008000033",
  "immutableReferences": {},
  "source": "pragma solidity >= 0.8.0;\n\nimport './interfaces/ICommitmentPool.sol';\nimport './libraries/TransferHelper.sol';\ncontract CommitmentPool\n{\n    Commitment[] public commitments; // initiator => counterparty => Commitments[];\n\n    enum CommitmentType {Pure, Locking, Option}\n\n    struct Commitment { \n        address initiator; \n        address counterparty; \n        uint256 amount; \n        address token;  \n        uint256 expiry; \n        Trade trade;\n        CommitmentType commitment_type; \n        bool active; \n        bool fulfiled; \n        bool completed;\n    }\n    struct Trade {\n        address token0;\n        address token1;\n        uint256 amount0;\n        uint256 amount1;\n    }\n\n    // event Commited(address indexed initiator, address indexed counterparty, uint256 expiry);\n    // event Completed(address indexed initiator, address indexed counterparty, uint256 index);\n\n    modifier isOpen(Commitment memory commitment) \n    { \n        require(!commitment.fulfiled); \n        _; \n        } \n    modifier isAvailable(Commitment memory commitment) \n    { \n        require(!commitment.completed); \n        _; \n        } \n    modifier notEffective(Commitment memory commitment) \n    { \n        require(!commitment.active); \n        _; \n    }\n\n    function commit(address counterparty, uint256 amount, address token, uint amount0, uint256 amount1, address token0, address token1, uint256 expiry, CommitmentType commitment_type) external {\n        //make commitment\n        Commitment memory commitment;\n        TransferHelper._safeTransferFrom(token, msg.sender, address(this), amount);\n        //require(commitment_type == CommitmentType.Locking || commitment_type == CommitmentType.Option || commitment_type == CommitmentType.Pure, \"commitmentType is wrong\");\n        if (commitment_type == CommitmentType.Pure) {\n            commitment = Commitment({\n            initiator: msg.sender,\n            counterparty: counterparty,\n            amount: amount,\n            token: token,\n            expiry: expiry,\n            trade: Trade({token0: address(0), token1:address(0), amount0:0, amount1:0}),\n            commitment_type: CommitmentType.Pure,\n            active: true, //immediately active for pure commitment\n            fulfiled: false,\n            completed: false\n        });\n        }\n        if (commitment_type == CommitmentType.Locking) {\n            TransferHelper._safeTransferFrom(token, msg.sender, address(this), amount);\n            commitment = Commitment({\n            initiator: msg.sender,\n            counterparty: counterparty,\n            amount: amount,\n            token: token,\n            expiry: expiry,\n            trade: Trade({\n                amount0: amount0,\n                token0: token0,\n                amount1: amount1,\n                token1: token1\n            }),\n            commitment_type: CommitmentType.Locking,\n            active: false, // active only after counterparty deposit his/her position\n            fulfiled: false,\n            completed: false\n        });\n        }  \n        if (commitment_type == CommitmentType.Option) {\n            TransferHelper._safeTransferFrom(token, msg.sender, address(this), amount0);\n            commitment = Commitment({\n            initiator: msg.sender,\n            counterparty: counterparty,\n            amount: amount,\n            token: token,\n            trade: Trade({\n                amount0: amount0,\n                amount1: amount1,\n                token0: token0,\n                token1: token1\n            }),\n            expiry: expiry,\n            commitment_type: CommitmentType.Option,\n            active: false, // active only after counterparty deposit his/her position\n            fulfiled: false,\n            completed: false\n        });\n        }\n        commitments.push(commitment);\n        //emit Commited(msg.sender, counterparty, expiry);\n    }\n\n    function fulfil_Type1(uint256 index) internal isOpen(commitments[index]) {\n        require(commitments[index].expiry >= block.timestamp, \"not expired\");\n        // simply retrieve after expiry, unless the counterparty has already fulfiled it\n        commitments[index].fulfiled = true;\n        commitments[index].completed = true;\n        TransferHelper._safeTransfer(commitments[index].token, commitments[index].initiator, commitments[index].amount);\n    }\n\n    function fulfil_Type2(uint256 index) internal {\n        // deposit your part as counterparty\n        require(commitments[index].expiry < block.timestamp, \"expired\");\n\n        address _token0 = commitments[index].trade.token0;\n        address _token1 = commitments[index].trade.token1;\n        uint256 _amount0 = (commitments[index]).trade.amount0;\n        uint256 _amount1 = commitments[index].trade.amount1;\n\n        // counterparty put in his position\n        if (msg.sender == commitments[index].counterparty && !commitments[index].fulfiled) {\n            // lock the commitment\n            commitments[index].active = true;\n\n            TransferHelper._safeTransferFrom(_token1, msg.sender, address(this), _amount1);    \n        }\n        // initiator put in his position and take back his commitment and counterparty's position\n        if (commitments[index].active && !commitments[index].fulfiled && msg.sender == commitments[index].initiator) {\n\n            commitments[index].fulfiled = true;\n            // transfer in his position\n            TransferHelper._safeTransferFrom(commitments[index].trade.token0, msg.sender, address(this), commitments[index].trade.amount0);       \n            // take counterparty's position\n            TransferHelper._safeTransfer(_token1, msg.sender, _amount1);\n            //commitment\n            TransferHelper._safeTransfer(commitments[index].token, msg.sender, commitments[index].amount);\n        }\n        // counterparty take initiator's position\n        if (msg.sender == commitments[index].counterparty && commitments[index].fulfiled && !commitments[index].completed) {\n            commitments[index].completed = true;\n            TransferHelper._safeTransfer(_token0, address(this), _amount0);\n        }\n    }\n\n    function fulfil_Type3(uint256 index) internal  {\n        require(commitments[index].expiry < block.timestamp, \"expired\");\n\n        address _token0 = commitments[index].trade.token0;\n        address _token1 = commitments[index].trade.token1;\n        uint256 _amount0 = (commitments[index]).trade.amount0;\n        uint256 _amount1 = commitments[index].trade.amount1;\n\n        if (msg.sender == commitments[index].counterparty && !commitments[index].fulfiled) {\n\n                commitments[index].active = true;\n\n                TransferHelper._safeTransferFrom(_token1, msg.sender, address(this), _amount1);    \n\n                //commitment\n                TransferHelper._safeTransfer(commitments[index].token, msg.sender, commitments[index].amount);\n            }\n            // initiator put in his position and take counterparty's position\n            if (commitments[index].active && !commitments[index].fulfiled && msg.sender == commitments[index].initiator) {\n\n                commitments[index].fulfiled = true;\n                // transfer in his position\n                TransferHelper._safeTransferFrom(_token0, msg.sender, address(this), _amount0);       \n                // take counterparty's position\n                TransferHelper._safeTransfer(_token1, msg.sender, _amount1);\n                //commitment\n            }\n            // counterparty take initiator's position\n            if (msg.sender == commitments[index].counterparty && commitments[index].fulfiled && !commitments[index].completed) {\n                commitments[index].completed = true;\n                TransferHelper._safeTransfer(_token0, address(this), _amount0);\n            }\n        }\n\n    function fulfil(uint256 index) external  {\n        if (commitments[index].commitment_type == CommitmentType.Pure) {\n            fulfil_Type1(index);\n        }\n        if (commitments[index].commitment_type == CommitmentType.Locking) {\n            fulfil_Type2(index);\n        }  \n        if (commitments[index].commitment_type == CommitmentType.Option) {\n            fulfil_Type3(index);\n        }\n    }\n\n    //get back commitment only if the deal is not completed, for completed deal commitement is already settled.\n    // for Type1, the counterparty can collect the commitment anytime before the expiry, or the initiator collect after expiry\n    function _retrieveC_1( uint256 index) private isAvailable(commitments[index]) {\n        address _token = commitments[index].token;\n        uint256 _amount = commitments[index].amount;\n\n        if ( msg.sender == commitments[index].counterparty) {\n            commitments[index].completed = true;\n            TransferHelper._safeTransfer(_token, commitments[index].counterparty, _amount);\n        }\n        if (msg.sender == commitments[index].initiator && commitments[index].expiry >= block.timestamp) {\n            commitments[index].completed = true;\n            TransferHelper._safeTransfer(_token, commitments[index].initiator, _amount);\n        }\n    }\n    // for Type2, the counterparty can collect the commitment if the intiitator doesnot settle after expiry, or the initiator get back before the commitment turns active\n    function _retrieveC_2( uint256 index) private isAvailable(commitments[index]) {\n        address _token = commitments[index].token;\n        uint256 _amount = commitments[index].amount;\n        if (!commitments[index].active) {\n            \n            commitments[index].completed = true;\n            TransferHelper._safeTransfer(_token, commitments[index].initiator, _amount);\n        }\n        if (commitments[index].expiry >= block.timestamp && commitments[index].active) {\n            commitments[index].completed = true;\n            TransferHelper._safeTransfer(_token, commitments[index].counterparty, _amount);\n        }\n        \n    }  \n    // for Type3 only the initiator can get back the commitment anytime before the commitment becomes active.\n    function _retrieveC_3( uint256 index) private notEffective(commitments[index]) isAvailable(commitments[index]) {\n        commitments[index].completed = true;\n        TransferHelper._safeTransfer(commitments[index].token, commitments[index].initiator, commitments[index].amount);\n    }  \n\n    function retrieveCommitment(uint256 index) external  {\n        if (commitments[index].commitment_type == CommitmentType.Pure) {\n            _retrieveC_1(index);\n        }\n        if (commitments[index].commitment_type == CommitmentType.Locking) {\n            _retrieveC_2(index);\n        }  \n        if (commitments[index].commitment_type== CommitmentType.Option) {\n            _retrieveC_3(index);\n        }\n    }\n\n\n}",
  "sourcePath": "/Users/chriswong/Desktop/bootcamp/blockchain-developer-bootcamp-final-project/contracts/CommitmentPool.sol",
  "compiler": {
    "name": "solc",
    "version": "0.8.0+commit.c7dfd78e.Emscripten.clang"
  },
  "schemaVersion": "3.4.3",
  "updatedAt": "2021-10-04T02:53:18.384Z",
  "devdoc": {
    "kind": "dev",
    "methods": {},
    "version": 1
  },
  "userdoc": {
    "kind": "user",
    "methods": {},
    "version": 1
  }
}